{
	"contracts/1_Lottery.sol": {
		"Lottery": {
			"abi": [
				{
					"constant": true,
					"inputs": [
						{
							"name": "",
							"type": "uint256"
						}
					],
					"name": "numbers",
					"outputs": [
						{
							"name": "",
							"type": "int256"
						}
					],
					"payable": false,
					"stateMutability": "view",
					"type": "function"
				},
				{
					"inputs": [],
					"payable": false,
					"stateMutability": "nonpayable",
					"type": "constructor"
				}
			],
			"devdoc": {
				"methods": {}
			},
			"evm": {
				"assembly": "    /* \"contracts/1_Lottery.sol\":26:277  contract Lottery {... */\n  mstore(0x40, 0x80)\n    /* \"contracts/1_Lottery.sol\":76:187  constructor () public {... */\n  callvalue\n    /* \"--CODEGEN--\":8:17   */\n  dup1\n    /* \"--CODEGEN--\":5:7   */\n  iszero\n  tag_1\n  jumpi\n    /* \"--CODEGEN--\":30:31   */\n  0x0\n    /* \"--CODEGEN--\":27:28   */\n  dup1\n    /* \"--CODEGEN--\":20:32   */\n  revert\n    /* \"--CODEGEN--\":5:7   */\ntag_1:\n    /* \"contracts/1_Lottery.sol\":76:187  constructor () public {... */\n  pop\n    /* \"contracts/1_Lottery.sol\":108:115  numbers */\n  0x0\n    /* \"contracts/1_Lottery.sol\":121:123  20 */\n  0x14\n    /* \"contracts/1_Lottery.sol\":108:124  numbers.push(20) */\n  swap1\n  dup1\n    /* \"--CODEGEN--\":39:40   */\n  0x1\n    /* \"--CODEGEN--\":33:36   */\n  dup2\n    /* \"--CODEGEN--\":27:37   */\n  sload\n    /* \"--CODEGEN--\":23:41   */\n  add\n    /* \"--CODEGEN--\":57:67   */\n  dup1\n    /* \"--CODEGEN--\":52:55   */\n  dup3\n    /* \"--CODEGEN--\":45:68   */\n  sstore\n    /* \"--CODEGEN--\":79:89   */\n  dup1\n    /* \"--CODEGEN--\":72:89   */\n  swap2\n  pop\n    /* \"--CODEGEN--\":0:93   */\n  pop\n    /* \"contracts/1_Lottery.sol\":108:124  numbers.push(20) */\n  swap1\n  0x1\n  dup3\n  sub\n  swap1\n  0x0\n  mstore\n  keccak256(0x0, 0x20)\n  add\n  0x0\n  swap1\n  swap2\n  swap3\n  swap1\n  swap2\n  swap1\n  swap2\n  pop\n  sstore\n  pop\n    /* \"contracts/1_Lottery.sol\":134:141  numbers */\n  0x0\n    /* \"contracts/1_Lottery.sol\":147:149  32 */\n  0x20\n    /* \"contracts/1_Lottery.sol\":134:150  numbers.push(32) */\n  swap1\n  dup1\n    /* \"--CODEGEN--\":39:40   */\n  0x1\n    /* \"--CODEGEN--\":33:36   */\n  dup2\n    /* \"--CODEGEN--\":27:37   */\n  sload\n    /* \"--CODEGEN--\":23:41   */\n  add\n    /* \"--CODEGEN--\":57:67   */\n  dup1\n    /* \"--CODEGEN--\":52:55   */\n  dup3\n    /* \"--CODEGEN--\":45:68   */\n  sstore\n    /* \"--CODEGEN--\":79:89   */\n  dup1\n    /* \"--CODEGEN--\":72:89   */\n  swap2\n  pop\n    /* \"--CODEGEN--\":0:93   */\n  pop\n    /* \"contracts/1_Lottery.sol\":134:150  numbers.push(32) */\n  swap1\n  0x1\n  dup3\n  sub\n  swap1\n  0x0\n  mstore\n  keccak256(0x0, 0x20)\n  add\n  0x0\n  swap1\n  swap2\n  swap3\n  swap1\n  swap2\n  swap1\n  swap2\n  pop\n  sstore\n  pop\n    /* \"contracts/1_Lottery.sol\":160:180  changeArray(numbers) */\n  tag_6\n    /* \"contracts/1_Lottery.sol\":172:179  numbers */\n  0x0\n    /* \"contracts/1_Lottery.sol\":160:180  changeArray(numbers) */\n  dup1\n  sload\n  dup1\n  0x20\n  mul\n  0x20\n  add\n  mload(0x40)\n  swap1\n  dup2\n  add\n  0x40\n  mstore\n  dup1\n  swap3\n  swap2\n  swap1\n  dup2\n  dup2\n  mstore\n  0x20\n  add\n  dup3\n  dup1\n  sload\n  dup1\n  iszero\n  tag_7\n  jumpi\n  0x20\n  mul\n  dup3\n  add\n  swap2\n  swap1\n  0x0\n  mstore\n  keccak256(0x0, 0x20)\n  swap1\ntag_8:\n  dup2\n  sload\n  dup2\n  mstore\n  0x20\n  add\n  swap1\n  0x1\n  add\n  swap1\n  dup1\n  dup4\n  gt\n  tag_8\n  jumpi\ntag_7:\n  pop\n  pop\n  pop\n  pop\n  pop\n    /* \"contracts/1_Lottery.sol\":160:171  changeArray */\n  mul(0x100000000, tag_9)\n    /* \"contracts/1_Lottery.sol\":160:180  changeArray(numbers) */\n  0x100000000\n  swap1\n  div\n  jump\t// in\ntag_6:\n    /* \"contracts/1_Lottery.sol\":26:277  contract Lottery {... */\n  jump(tag_10)\n    /* \"contracts/1_Lottery.sol\":193:275  function changeArray(int[] memory myArray) private {... */\ntag_9:\n    /* \"contracts/1_Lottery.sol\":267:268  1 */\n  0x1\n    /* \"contracts/1_Lottery.sol\":254:261  myArray */\n  dup2\n    /* \"contracts/1_Lottery.sol\":262:263  0 */\n  0x0\n    /* \"contracts/1_Lottery.sol\":254:264  myArray[0] */\n  dup2\n  mload\n  dup2\n  lt\n  iszero\n  iszero\n  tag_12\n  jumpi\n  invalid\ntag_12:\n  swap1\n  0x20\n  add\n  swap1\n  0x20\n  mul\n  add\n    /* \"contracts/1_Lottery.sol\":254:268  myArray[0] = 1 */\n  dup2\n  dup2\n  mstore\n  pop\n  pop\n    /* \"contracts/1_Lottery.sol\":193:275  function changeArray(int[] memory myArray) private {... */\n  pop\n  jump\t// out\n    /* \"contracts/1_Lottery.sol\":26:277  contract Lottery {... */\ntag_10:\n  dataSize(sub_0)\n  dup1\n  dataOffset(sub_0)\n  0x0\n  codecopy\n  0x0\n  return\nstop\n\nsub_0: assembly {\n        /* \"contracts/1_Lottery.sol\":26:277  contract Lottery {... */\n      mstore(0x40, 0x80)\n      jumpi(tag_1, lt(calldatasize, 0x4))\n      calldataload(0x0)\n      0x100000000000000000000000000000000000000000000000000000000\n      swap1\n      div\n      0xffffffff\n      and\n      dup1\n      0xd39fa233\n      eq\n      tag_2\n      jumpi\n    tag_1:\n      0x0\n      dup1\n      revert\n        /* \"contracts/1_Lottery.sol\":49:69  int[] public numbers */\n    tag_2:\n      callvalue\n        /* \"--CODEGEN--\":8:17   */\n      dup1\n        /* \"--CODEGEN--\":5:7   */\n      iszero\n      tag_3\n      jumpi\n        /* \"--CODEGEN--\":30:31   */\n      0x0\n        /* \"--CODEGEN--\":27:28   */\n      dup1\n        /* \"--CODEGEN--\":20:32   */\n      revert\n        /* \"--CODEGEN--\":5:7   */\n    tag_3:\n        /* \"contracts/1_Lottery.sol\":49:69  int[] public numbers */\n      pop\n      tag_4\n      0x4\n      dup1\n      calldatasize\n      sub\n      dup2\n      add\n      swap1\n      dup1\n      dup1\n      calldataload\n      swap1\n      0x20\n      add\n      swap1\n      swap3\n      swap2\n      swap1\n      pop\n      pop\n      pop\n      jump(tag_5)\n    tag_4:\n      mload(0x40)\n      dup1\n      dup3\n      dup2\n      mstore\n      0x20\n      add\n      swap2\n      pop\n      pop\n      mload(0x40)\n      dup1\n      swap2\n      sub\n      swap1\n      return\n    tag_5:\n      0x0\n      dup2\n      dup2\n      sload\n      dup2\n      lt\n      iszero\n      iszero\n      tag_6\n      jumpi\n      invalid\n    tag_6:\n      swap1\n      0x0\n      mstore\n      keccak256(0x0, 0x20)\n      add\n      0x0\n      swap2\n      pop\n      swap1\n      pop\n      sload\n      dup2\n      jump\t// out\n\n    auxdata: 0xa165627a7a72305820a1665fbd01d096260d4fa1436351b6cd04514f4a925dffabb9be69e3bad633460029\n}\n",
				"bytecode": {
					"linkReferences": {},
					"object": "608060405234801561001057600080fd5b506000601490806001815401808255809150509060018203906000526020600020016000909192909190915055506000602090806001815401808255809150509060018203906000526020600020016000909192909190915055506100d360008054806020026020016040519081016040528092919081815260200182805480156100ba57602002820191906000526020600020905b8154815260200190600101908083116100a6575b50505050506100d8640100000000026401000000009004565b6100fa565b60018160008151811015156100e957fe5b906020019060200201818152505050565b60d0806101086000396000f300608060405260043610603f576000357c0100000000000000000000000000000000000000000000000000000000900463ffffffff168063d39fa233146044575b600080fd5b348015604f57600080fd5b50606c600480360381019080803590602001909291905050506082565b6040518082815260200191505060405180910390f35b600081815481101515609057fe5b9060005260206000200160009150905054815600a165627a7a72305820a1665fbd01d096260d4fa1436351b6cd04514f4a925dffabb9be69e3bad633460029",
					"opcodes": "PUSH1 0x80 PUSH1 0x40 MSTORE CALLVALUE DUP1 ISZERO PUSH2 0x10 JUMPI PUSH1 0x0 DUP1 REVERT JUMPDEST POP PUSH1 0x0 PUSH1 0x14 SWAP1 DUP1 PUSH1 0x1 DUP2 SLOAD ADD DUP1 DUP3 SSTORE DUP1 SWAP2 POP POP SWAP1 PUSH1 0x1 DUP3 SUB SWAP1 PUSH1 0x0 MSTORE PUSH1 0x20 PUSH1 0x0 KECCAK256 ADD PUSH1 0x0 SWAP1 SWAP2 SWAP3 SWAP1 SWAP2 SWAP1 SWAP2 POP SSTORE POP PUSH1 0x0 PUSH1 0x20 SWAP1 DUP1 PUSH1 0x1 DUP2 SLOAD ADD DUP1 DUP3 SSTORE DUP1 SWAP2 POP POP SWAP1 PUSH1 0x1 DUP3 SUB SWAP1 PUSH1 0x0 MSTORE PUSH1 0x20 PUSH1 0x0 KECCAK256 ADD PUSH1 0x0 SWAP1 SWAP2 SWAP3 SWAP1 SWAP2 SWAP1 SWAP2 POP SSTORE POP PUSH2 0xD3 PUSH1 0x0 DUP1 SLOAD DUP1 PUSH1 0x20 MUL PUSH1 0x20 ADD PUSH1 0x40 MLOAD SWAP1 DUP2 ADD PUSH1 0x40 MSTORE DUP1 SWAP3 SWAP2 SWAP1 DUP2 DUP2 MSTORE PUSH1 0x20 ADD DUP3 DUP1 SLOAD DUP1 ISZERO PUSH2 0xBA JUMPI PUSH1 0x20 MUL DUP3 ADD SWAP2 SWAP1 PUSH1 0x0 MSTORE PUSH1 0x20 PUSH1 0x0 KECCAK256 SWAP1 JUMPDEST DUP2 SLOAD DUP2 MSTORE PUSH1 0x20 ADD SWAP1 PUSH1 0x1 ADD SWAP1 DUP1 DUP4 GT PUSH2 0xA6 JUMPI JUMPDEST POP POP POP POP POP PUSH2 0xD8 PUSH5 0x100000000 MUL PUSH5 0x100000000 SWAP1 DIV JUMP JUMPDEST PUSH2 0xFA JUMP JUMPDEST PUSH1 0x1 DUP2 PUSH1 0x0 DUP2 MLOAD DUP2 LT ISZERO ISZERO PUSH2 0xE9 JUMPI INVALID JUMPDEST SWAP1 PUSH1 0x20 ADD SWAP1 PUSH1 0x20 MUL ADD DUP2 DUP2 MSTORE POP POP POP JUMP JUMPDEST PUSH1 0xD0 DUP1 PUSH2 0x108 PUSH1 0x0 CODECOPY PUSH1 0x0 RETURN STOP PUSH1 0x80 PUSH1 0x40 MSTORE PUSH1 0x4 CALLDATASIZE LT PUSH1 0x3F JUMPI PUSH1 0x0 CALLDATALOAD PUSH29 0x100000000000000000000000000000000000000000000000000000000 SWAP1 DIV PUSH4 0xFFFFFFFF AND DUP1 PUSH4 0xD39FA233 EQ PUSH1 0x44 JUMPI JUMPDEST PUSH1 0x0 DUP1 REVERT JUMPDEST CALLVALUE DUP1 ISZERO PUSH1 0x4F JUMPI PUSH1 0x0 DUP1 REVERT JUMPDEST POP PUSH1 0x6C PUSH1 0x4 DUP1 CALLDATASIZE SUB DUP2 ADD SWAP1 DUP1 DUP1 CALLDATALOAD SWAP1 PUSH1 0x20 ADD SWAP1 SWAP3 SWAP2 SWAP1 POP POP POP PUSH1 0x82 JUMP JUMPDEST PUSH1 0x40 MLOAD DUP1 DUP3 DUP2 MSTORE PUSH1 0x20 ADD SWAP2 POP POP PUSH1 0x40 MLOAD DUP1 SWAP2 SUB SWAP1 RETURN JUMPDEST PUSH1 0x0 DUP2 DUP2 SLOAD DUP2 LT ISZERO ISZERO PUSH1 0x90 JUMPI INVALID JUMPDEST SWAP1 PUSH1 0x0 MSTORE PUSH1 0x20 PUSH1 0x0 KECCAK256 ADD PUSH1 0x0 SWAP2 POP SWAP1 POP SLOAD DUP2 JUMP STOP LOG1 PUSH6 0x627A7A723058 KECCAK256 LOG1 PUSH7 0x5FBD01D096260D 0x4f LOG1 NUMBER PUSH4 0x51B6CD04 MLOAD 0x4f 0x4a SWAP3 0x5d SELFDESTRUCT 0xab 0xb9 0xbe PUSH10 0xE3BAD633460029000000 "
				},
				"gasEstimates": {
					"creation": {
						"codeDepositCost": "41600",
						"executionCost": "infinite",
						"totalCost": "infinite"
					},
					"external": {
						"numbers(uint256)": "749"
					},
					"internal": {
						"changeArray(int256[] memory)": "infinite"
					}
				},
				"methodIdentifiers": {
					"numbers(uint256)": "d39fa233"
				}
			},
			"userdoc": {
				"methods": {}
			}
		}
	}
}